{
    "_format": "hh-sol-artifact-1",
    "contractName": "Safe",
    "sourceName": "@safe-global/safe-contracts/contracts/Safe.sol",
    "abi": [
        {
            "inputs": [],
            "stateMutability": "nonpayable",
            "type": "constructor"
        },
        {
            "anonymous": false,
            "inputs": [
                {
                    "indexed": true,
                    "internalType": "address",
                    "name": "owner",
                    "type": "address"
                }
            ],
            "name": "AddedOwner",
            "type": "event"
        },
        {
            "anonymous": false,
            "inputs": [
                {
                    "indexed": true,
                    "internalType": "bytes32",
                    "name": "approvedHash",
                    "type": "bytes32"
                },
                {
                    "indexed": true,
                    "internalType": "address",
                    "name": "owner",
                    "type": "address"
                }
            ],
            "name": "ApproveHash",
            "type": "event"
        },
        {
            "anonymous": false,
            "inputs": [
                {
                    "indexed": true,
                    "internalType": "address",
                    "name": "handler",
                    "type": "address"
                }
            ],
            "name": "ChangedFallbackHandler",
            "type": "event"
        },
        {
            "anonymous": false,
            "inputs": [
                {
                    "indexed": true,
                    "internalType": "address",
                    "name": "guard",
                    "type": "address"
                }
            ],
            "name": "ChangedGuard",
            "type": "event"
        },
        {
            "anonymous": false,
            "inputs": [
                {
                    "indexed": false,
                    "internalType": "uint256",
                    "name": "threshold",
                    "type": "uint256"
                }
            ],
            "name": "ChangedThreshold",
            "type": "event"
        },
        {
            "anonymous": false,
            "inputs": [
                {
                    "indexed": true,
                    "internalType": "address",
                    "name": "module",
                    "type": "address"
                }
            ],
            "name": "DisabledModule",
            "type": "event"
        },
        {
            "anonymous": false,
            "inputs": [
                {
                    "indexed": true,
                    "internalType": "address",
                    "name": "module",
                    "type": "address"
                }
            ],
            "name": "EnabledModule",
            "type": "event"
        },
        {
            "anonymous": false,
            "inputs": [
                {
                    "indexed": true,
                    "internalType": "bytes32",
                    "name": "txHash",
                    "type": "bytes32"
                },
                {
                    "indexed": false,
                    "internalType": "uint256",
                    "name": "payment",
                    "type": "uint256"
                }
            ],
            "name": "ExecutionFailure",
            "type": "event"
        },
        {
            "anonymous": false,
            "inputs": [
                {
                    "indexed": true,
                    "internalType": "address",
                    "name": "module",
                    "type": "address"
                }
            ],
            "name": "ExecutionFromModuleFailure",
            "type": "event"
        },
        {
            "anonymous": false,
            "inputs": [
                {
                    "indexed": true,
                    "internalType": "address",
                    "name": "module",
                    "type": "address"
                }
            ],
            "name": "ExecutionFromModuleSuccess",
            "type": "event"
        },
        {
            "anonymous": false,
            "inputs": [
                {
                    "indexed": true,
                    "internalType": "bytes32",
                    "name": "txHash",
                    "type": "bytes32"
                },
                {
                    "indexed": false,
                    "internalType": "uint256",
                    "name": "payment",
                    "type": "uint256"
                }
            ],
            "name": "ExecutionSuccess",
            "type": "event"
        },
        {
            "anonymous": false,
            "inputs": [
                {
                    "indexed": true,
                    "internalType": "address",
                    "name": "owner",
                    "type": "address"
                }
            ],
            "name": "RemovedOwner",
            "type": "event"
        },
        {
            "anonymous": false,
            "inputs": [
                {
                    "indexed": true,
                    "internalType": "address",
                    "name": "sender",
                    "type": "address"
                },
                {
                    "indexed": false,
                    "internalType": "uint256",
                    "name": "value",
                    "type": "uint256"
                }
            ],
            "name": "SafeReceived",
            "type": "event"
        },
        {
            "anonymous": false,
            "inputs": [
                {
                    "indexed": true,
                    "internalType": "address",
                    "name": "initiator",
                    "type": "address"
                },
                {
                    "indexed": false,
                    "internalType": "address[]",
                    "name": "owners",
                    "type": "address[]"
                },
                {
                    "indexed": false,
                    "internalType": "uint256",
                    "name": "threshold",
                    "type": "uint256"
                },
                {
                    "indexed": false,
                    "internalType": "address",
                    "name": "initializer",
                    "type": "address"
                },
                {
                    "indexed": false,
                    "internalType": "address",
                    "name": "fallbackHandler",
                    "type": "address"
                }
            ],
            "name": "SafeSetup",
            "type": "event"
        },
        {
            "anonymous": false,
            "inputs": [
                {
                    "indexed": true,
                    "internalType": "bytes32",
                    "name": "msgHash",
                    "type": "bytes32"
                }
            ],
            "name": "SignMsg",
            "type": "event"
        },
        {
            "stateMutability": "nonpayable",
            "type": "fallback"
        },
        {
            "inputs": [],
            "name": "VERSION",
            "outputs": [
                {
                    "internalType": "string",
                    "name": "",
                    "type": "string"
                }
            ],
            "stateMutability": "view",
            "type": "function"
        },
        {
            "inputs": [
                {
                    "internalType": "address",
                    "name": "owner",
                    "type": "address"
                },
                {
                    "internalType": "uint256",
                    "name": "_threshold",
                    "type": "uint256"
                }
            ],
            "name": "addOwnerWithThreshold",
            "outputs": [],
            "stateMutability": "nonpayable",
            "type": "function"
        },
        {
            "inputs": [
                {
                    "internalType": "bytes32",
                    "name": "hashToApprove",
                    "type": "bytes32"
                }
            ],
            "name": "approveHash",
            "outputs": [],
            "stateMutability": "nonpayable",
            "type": "function"
        },
        {
            "inputs": [
                {
                    "internalType": "address",
                    "name": "",
                    "type": "address"
                },
                {
                    "internalType": "bytes32",
                    "name": "",
                    "type": "bytes32"
                }
            ],
            "name": "approvedHashes",
            "outputs": [
                {
                    "internalType": "uint256",
                    "name": "",
                    "type": "uint256"
                }
            ],
            "stateMutability": "view",
            "type": "function"
        },
        {
            "inputs": [
                {
                    "internalType": "uint256",
                    "name": "_threshold",
                    "type": "uint256"
                }
            ],
            "name": "changeThreshold",
            "outputs": [],
            "stateMutability": "nonpayable",
            "type": "function"
        },
        {
            "inputs": [
                {
                    "internalType": "bytes32",
                    "name": "dataHash",
                    "type": "bytes32"
                },
                {
                    "internalType": "bytes",
                    "name": "data",
                    "type": "bytes"
                },
                {
                    "internalType": "bytes",
                    "name": "signatures",
                    "type": "bytes"
                },
                {
                    "internalType": "uint256",
                    "name": "requiredSignatures",
                    "type": "uint256"
                }
            ],
            "name": "checkNSignatures",
            "outputs": [],
            "stateMutability": "view",
            "type": "function"
        },
        {
            "inputs": [
                {
                    "internalType": "bytes32",
                    "name": "dataHash",
                    "type": "bytes32"
                },
                {
                    "internalType": "bytes",
                    "name": "data",
                    "type": "bytes"
                },
                {
                    "internalType": "bytes",
                    "name": "signatures",
                    "type": "bytes"
                }
            ],
            "name": "checkSignatures",
            "outputs": [],
            "stateMutability": "view",
            "type": "function"
        },
        {
            "inputs": [
                {
                    "internalType": "address",
                    "name": "prevModule",
                    "type": "address"
                },
                {
                    "internalType": "address",
                    "name": "module",
                    "type": "address"
                }
            ],
            "name": "disableModule",
            "outputs": [],
            "stateMutability": "nonpayable",
            "type": "function"
        },
        {
            "inputs": [],
            "name": "domainSeparator",
            "outputs": [
                {
                    "internalType": "bytes32",
                    "name": "",
                    "type": "bytes32"
                }
            ],
            "stateMutability": "view",
            "type": "function"
        },
        {
            "inputs": [
                {
                    "internalType": "address",
                    "name": "module",
                    "type": "address"
                }
            ],
            "name": "enableModule",
            "outputs": [],
            "stateMutability": "nonpayable",
            "type": "function"
        },
        {
            "inputs": [
                {
                    "internalType": "address",
                    "name": "to",
                    "type": "address"
                },
                {
                    "internalType": "uint256",
                    "name": "value",
                    "type": "uint256"
                },
                {
                    "internalType": "bytes",
                    "name": "data",
                    "type": "bytes"
                },
                {
                    "internalType": "enum Enum.Operation",
                    "name": "operation",
                    "type": "uint8"
                },
                {
                    "internalType": "uint256",
                    "name": "safeTxGas",
                    "type": "uint256"
                },
                {
                    "internalType": "uint256",
                    "name": "baseGas",
                    "type": "uint256"
                },
                {
                    "internalType": "uint256",
                    "name": "gasPrice",
                    "type": "uint256"
                },
                {
                    "internalType": "address",
                    "name": "gasToken",
                    "type": "address"
                },
                {
                    "internalType": "address",
                    "name": "refundReceiver",
                    "type": "address"
                },
                {
                    "internalType": "uint256",
                    "name": "_nonce",
                    "type": "uint256"
                }
            ],
            "name": "encodeTransactionData",
            "outputs": [
                {
                    "internalType": "bytes",
                    "name": "",
                    "type": "bytes"
                }
            ],
            "stateMutability": "view",
            "type": "function"
        },
        {
            "inputs": [
                {
                    "internalType": "address",
                    "name": "to",
                    "type": "address"
                },
                {
                    "internalType": "uint256",
                    "name": "value",
                    "type": "uint256"
                },
                {
                    "internalType": "bytes",
                    "name": "data",
                    "type": "bytes"
                },
                {
                    "internalType": "enum Enum.Operation",
                    "name": "operation",
                    "type": "uint8"
                },
                {
                    "internalType": "uint256",
                    "name": "safeTxGas",
                    "type": "uint256"
                },
                {
                    "internalType": "uint256",
                    "name": "baseGas",
                    "type": "uint256"
                },
                {
                    "internalType": "uint256",
                    "name": "gasPrice",
                    "type": "uint256"
                },
                {
                    "internalType": "address",
                    "name": "gasToken",
                    "type": "address"
                },
                {
                    "internalType": "address payable",
                    "name": "refundReceiver",
                    "type": "address"
                },
                {
                    "internalType": "bytes",
                    "name": "signatures",
                    "type": "bytes"
                }
            ],
            "name": "execTransaction",
            "outputs": [
                {
                    "internalType": "bool",
                    "name": "success",
                    "type": "bool"
                }
            ],
            "stateMutability": "payable",
            "type": "function"
        },
        {
            "inputs": [
                {
                    "internalType": "address",
                    "name": "to",
                    "type": "address"
                },
                {
                    "internalType": "uint256",
                    "name": "value",
                    "type": "uint256"
                },
                {
                    "internalType": "bytes",
                    "name": "data",
                    "type": "bytes"
                },
                {
                    "internalType": "enum Enum.Operation",
                    "name": "operation",
                    "type": "uint8"
                }
            ],
            "name": "execTransactionFromModule",
            "outputs": [
                {
                    "internalType": "bool",
                    "name": "success",
                    "type": "bool"
                }
            ],
            "stateMutability": "nonpayable",
            "type": "function"
        },
        {
            "inputs": [
                {
                    "internalType": "address",
                    "name": "to",
                    "type": "address"
                },
                {
                    "internalType": "uint256",
                    "name": "value",
                    "type": "uint256"
                },
                {
                    "internalType": "bytes",
                    "name": "data",
                    "type": "bytes"
                },
                {
                    "internalType": "enum Enum.Operation",
                    "name": "operation",
                    "type": "uint8"
                }
            ],
            "name": "execTransactionFromModuleReturnData",
            "outputs": [
                {
                    "internalType": "bool",
                    "name": "success",
                    "type": "bool"
                },
                {
                    "internalType": "bytes",
                    "name": "returnData",
                    "type": "bytes"
                }
            ],
            "stateMutability": "nonpayable",
            "type": "function"
        },
        {
            "inputs": [],
            "name": "getChainId",
            "outputs": [
                {
                    "internalType": "uint256",
                    "name": "",
                    "type": "uint256"
                }
            ],
            "stateMutability": "view",
            "type": "function"
        },
        {
            "inputs": [
                {
                    "internalType": "address",
                    "name": "start",
                    "type": "address"
                },
                {
                    "internalType": "uint256",
                    "name": "pageSize",
                    "type": "uint256"
                }
            ],
            "name": "getModulesPaginated",
            "outputs": [
                {
                    "internalType": "address[]",
                    "name": "array",
                    "type": "address[]"
                },
                {
                    "internalType": "address",
                    "name": "next",
                    "type": "address"
                }
            ],
            "stateMutability": "view",
            "type": "function"
        },
        {
            "inputs": [],
            "name": "getOwners",
            "outputs": [
                {
                    "internalType": "address[]",
                    "name": "",
                    "type": "address[]"
                }
            ],
            "stateMutability": "view",
            "type": "function"
        },
        {
            "inputs": [
                {
                    "internalType": "uint256",
                    "name": "offset",
                    "type": "uint256"
                },
                {
                    "internalType": "uint256",
                    "name": "length",
                    "type": "uint256"
                }
            ],
            "name": "getStorageAt",
            "outputs": [
                {
                    "internalType": "bytes",
                    "name": "",
                    "type": "bytes"
                }
            ],
            "stateMutability": "view",
            "type": "function"
        },
        {
            "inputs": [],
            "name": "getThreshold",
            "outputs": [
                {
                    "internalType": "uint256",
                    "name": "",
                    "type": "uint256"
                }
            ],
            "stateMutability": "view",
            "type": "function"
        },
        {
            "inputs": [
                {
                    "internalType": "address",
                    "name": "to",
                    "type": "address"
                },
                {
                    "internalType": "uint256",
                    "name": "value",
                    "type": "uint256"
                },
                {
                    "internalType": "bytes",
                    "name": "data",
                    "type": "bytes"
                },
                {
                    "internalType": "enum Enum.Operation",
                    "name": "operation",
                    "type": "uint8"
                },
                {
                    "internalType": "uint256",
                    "name": "safeTxGas",
                    "type": "uint256"
                },
                {
                    "internalType": "uint256",
                    "name": "baseGas",
                    "type": "uint256"
                },
                {
                    "internalType": "uint256",
                    "name": "gasPrice",
                    "type": "uint256"
                },
                {
                    "internalType": "address",
                    "name": "gasToken",
                    "type": "address"
                },
                {
                    "internalType": "address",
                    "name": "refundReceiver",
                    "type": "address"
                },
                {
                    "internalType": "uint256",
                    "name": "_nonce",
                    "type": "uint256"
                }
            ],
            "name": "getTransactionHash",
            "outputs": [
                {
                    "internalType": "bytes32",
                    "name": "",
                    "type": "bytes32"
                }
            ],
            "stateMutability": "view",
            "type": "function"
        },
        {
            "inputs": [
                {
                    "internalType": "address",
                    "name": "module",
                    "type": "address"
                }
            ],
            "name": "isModuleEnabled",
            "outputs": [
                {
                    "internalType": "bool",
                    "name": "",
                    "type": "bool"
                }
            ],
            "stateMutability": "view",
            "type": "function"
        },
        {
            "inputs": [
                {
                    "internalType": "address",
                    "name": "owner",
                    "type": "address"
                }
            ],
            "name": "isOwner",
            "outputs": [
                {
                    "internalType": "bool",
                    "name": "",
                    "type": "bool"
                }
            ],
            "stateMutability": "view",
            "type": "function"
        },
        {
            "inputs": [],
            "name": "nonce",
            "outputs": [
                {
                    "internalType": "uint256",
                    "name": "",
                    "type": "uint256"
                }
            ],
            "stateMutability": "view",
            "type": "function"
        },
        {
            "inputs": [
                {
                    "internalType": "address",
                    "name": "prevOwner",
                    "type": "address"
                },
                {
                    "internalType": "address",
                    "name": "owner",
                    "type": "address"
                },
                {
                    "internalType": "uint256",
                    "name": "_threshold",
                    "type": "uint256"
                }
            ],
            "name": "removeOwner",
            "outputs": [],
            "stateMutability": "nonpayable",
            "type": "function"
        },
        {
            "inputs": [
                {
                    "internalType": "address",
                    "name": "handler",
                    "type": "address"
                }
            ],
            "name": "setFallbackHandler",
            "outputs": [],
            "stateMutability": "nonpayable",
            "type": "function"
        },
        {
            "inputs": [
                {
                    "internalType": "address",
                    "name": "guard",
                    "type": "address"
                }
            ],
            "name": "setGuard",
            "outputs": [],
            "stateMutability": "nonpayable",
            "type": "function"
        },
        {
            "inputs": [
                {
                    "internalType": "address[]",
                    "name": "_owners",
                    "type": "address[]"
                },
                {
                    "internalType": "uint256",
                    "name": "_threshold",
                    "type": "uint256"
                },
                {
                    "internalType": "address",
                    "name": "to",
                    "type": "address"
                },
                {
                    "internalType": "bytes",
                    "name": "data",
                    "type": "bytes"
                },
                {
                    "internalType": "address",
                    "name": "fallbackHandler",
                    "type": "address"
                },
                {
                    "internalType": "address",
                    "name": "paymentToken",
                    "type": "address"
                },
                {
                    "internalType": "uint256",
                    "name": "payment",
                    "type": "uint256"
                },
                {
                    "internalType": "address payable",
                    "name": "paymentReceiver",
                    "type": "address"
                }
            ],
            "name": "setup",
            "outputs": [],
            "stateMutability": "nonpayable",
            "type": "function"
        },
        {
            "inputs": [
                {
                    "internalType": "bytes32",
                    "name": "",
                    "type": "bytes32"
                }
            ],
            "name": "signedMessages",
            "outputs": [
                {
                    "internalType": "uint256",
                    "name": "",
                    "type": "uint256"
                }
            ],
            "stateMutability": "view",
            "type": "function"
        },
        {
            "inputs": [
                {
                    "internalType": "address",
                    "name": "targetContract",
                    "type": "address"
                },
                {
                    "internalType": "bytes",
                    "name": "calldataPayload",
                    "type": "bytes"
                }
            ],
            "name": "simulateAndRevert",
            "outputs": [],
            "stateMutability": "nonpayable",
            "type": "function"
        },
        {
            "inputs": [
                {
                    "internalType": "address",
                    "name": "prevOwner",
                    "type": "address"
                },
                {
                    "internalType": "address",
                    "name": "oldOwner",
                    "type": "address"
                },
                {
                    "internalType": "address",
                    "name": "newOwner",
                    "type": "address"
                }
            ],
            "name": "swapOwner",
            "outputs": [],
            "stateMutability": "nonpayable",
            "type": "function"
        },
        {
            "stateMutability": "payable",
            "type": "receive"
        }
    ],
    "bytecode": "0x6080604052348015600f57600080fd5b506001600455613932806100246000396000f3fe6080604052600436106101d15760003560e01c8063affed0e0116100f7578063e19a9dd911610095578063f08a032311610064578063f08a0323146105f5578063f698da2514610615578063f8dc5dd91461067c578063ffa1ad741461069c5761020d565b8063e19a9dd914610580578063e318b52b146105a0578063e75235b8146105c0578063e86637db146105d55761020d565b8063cc2f8452116100d1578063cc2f8452146104f2578063d4d9bdcd14610520578063d8d11f7814610540578063e009cfde146105605761020d565b8063affed0e01461049c578063b4faba09146104b2578063b63e800d146104d25761020d565b80635624b25b1161016f5780636a7612021161013e5780636a7612021461040f5780637d83297414610422578063934f3a111461045a578063a0e67e2b1461047a5761020d565b80635624b25b146103755780635ae6bd37146103a2578063610b5925146103cf578063694e80c3146103ef5761020d565b80632f54bf6e116101ab5780632f54bf6e146102ea5780633408e4701461030a578063468721a7146103275780635229073f146103475761020d565b80630d582f131461027357806312fb68e0146102955780632d9ad53d146102b55761020d565b3661020d5760405134815233907f3d0ce9bfc3ed7d6862dbb28b2dea94561fe714a1b4d019aa8af39730d1ad7c3d9060200160405180910390a2005b34801561021957600080fd5b507f6c9a6c4a39284e37ed1cf53d337577d14212a4870fb976a4366c693b939918d580548061024457005b36600080373360601b365260008060143601600080855af190503d6000803e8061026d573d6000fd5b503d6000f35b34801561027f57600080fd5b5061029361028e366004612d24565b6106e5565b005b3480156102a157600080fd5b506102936102b0366004612e2a565b6108b1565b3480156102c157600080fd5b506102d56102d0366004612e9f565b610e41565b60405190151581526020015b60405180910390f35b3480156102f657600080fd5b506102d5610305366004612e9f565b610e7c565b34801561031657600080fd5b50465b6040519081526020016102e1565b34801561033357600080fd5b506102d5610342366004612ecb565b610eb4565b34801561035357600080fd5b50610367610362366004612ecb565b610fc3565b6040516102e1929190612f99565b34801561038157600080fd5b50610395610390366004612fb4565b610ff9565b6040516102e19190612fd6565b3480156103ae57600080fd5b506103196103bd366004612fe9565b60076020526000908152604090205481565b3480156103db57600080fd5b506102936103ea366004612e9f565b611075565b3480156103fb57600080fd5b5061029361040a366004612fe9565b6111f6565b6102d561041d36600461304b565b6112dc565b34801561042e57600080fd5b5061031961043d366004612d24565b600860209081526000928352604080842090915290825290205481565b34801561046657600080fd5b50610293610475366004613124565b611670565b34801561048657600080fd5b5061048f6116d2565b6040516102e191906131d6565b3480156104a857600080fd5b5061031960055481565b3480156104be57600080fd5b506102936104cd3660046131e9565b6117c3565b3480156104de57600080fd5b506102936104ed366004613239565b6117e6565b3480156104fe57600080fd5b5061051261050d366004612d24565b6118e8565b6040516102e192919061332e565b34801561052c57600080fd5b5061029361053b366004612fe9565b611ad4565b34801561054c57600080fd5b5061031961055b366004613359565b611b81565b34801561056c57600080fd5b5061029361057b36600461341a565b611bae565b34801561058c57600080fd5b5061029361059b366004612e9f565b611d18565b3480156105ac57600080fd5b506102936105bb366004613453565b611e78565b3480156105cc57600080fd5b50600454610319565b3480156105e157600080fd5b506103956105f0366004613359565b612113565b34801561060157600080fd5b50610293610610366004612e9f565b6122ac565b34801561062157600080fd5b5061031960007f47e79534a245952e8b16893a336b85a3d9ea9fa8c573f3d803afb92a794692184660408051602081019390935282015230606082015260800160405160208183030381529060405280519060200120905090565b34801561068857600080fd5b5061029361069736600461349e565b6122f4565b3480156106a857600080fd5b506103956040518060400160405280600581526020017f312e342e3100000000000000000000000000000000000000000000000000000081525081565b6106ed6124ef565b6001600160a01b0382161580159061070f57506001600160a01b038216600114155b801561072457506001600160a01b0382163014155b6107755760405162461bcd60e51b815260206004820152600560248201527f475332303300000000000000000000000000000000000000000000000000000060448201526064015b60405180910390fd5b6001600160a01b0382811660009081526002602052604090205416156107dd5760405162461bcd60e51b815260206004820152600560248201527f4753323034000000000000000000000000000000000000000000000000000000604482015260640161076c565b60026020527fe90b7bceb6e7df5418fb78d8ee546e97c83a08bbccc01a0644d599ccd2a7c2e080546001600160a01b038481166000818152604081208054939094167fffffffffffffffffffffffff0000000000000000000000000000000000000000938416179093556001835283549091161790915560038054916108628361350e565b90915550506040516001600160a01b038316907f9465fa0c962cc76958e6373a993326400c1c94f8be2fe3a952adfa7f60b2ea2690600090a280600454146108ad576108ad816111f6565b5050565b6108bc816041612540565b8251101561090c5760405162461bcd60e51b815260206004820152600560248201527f4753303230000000000000000000000000000000000000000000000000000000604482015260640161076c565b6000808060008060005b86811015610e35576041818102890160208101516040820151919092015160ff16955090935091506000849003610bcd57885160208a01208a1461099c5760405162461bcd60e51b815260206004820152600560248201527f4753303237000000000000000000000000000000000000000000000000000000604482015260640161076c565b91935083916109ac876041612540565b8210156109fb5760405162461bcd60e51b815260206004820152600560248201527f4753303231000000000000000000000000000000000000000000000000000000604482015260640161076c565b8751610a0883602061257c565b1115610a565760405162461bcd60e51b815260206004820152600560248201527f4753303232000000000000000000000000000000000000000000000000000000604482015260640161076c565b602082890181015189519091610a79908390610a7390879061257c565b9061257c565b1115610ac75760405162461bcd60e51b815260206004820152600560248201527f4753303233000000000000000000000000000000000000000000000000000000604482015260640161076c565b6040517f20c13b0b000000000000000000000000000000000000000000000000000000008082528a8501602001916001600160a01b038916906320c13b0b90610b16908f908690600401613546565b602060405180830381865afa158015610b33573d6000803e3d6000fd5b505050506040513d601f19601f82011682018060405250810190610b57919061356b565b7fffffffff000000000000000000000000000000000000000000000000000000001614610bc65760405162461bcd60e51b815260206004820152600560248201527f4753303234000000000000000000000000000000000000000000000000000000604482015260640161076c565b5050610d8c565b8360ff16600103610c67579193508391336001600160a01b0384161480610c1657506001600160a01b03851660009081526008602090815260408083208d845290915290205415155b610c625760405162461bcd60e51b815260206004820152600560248201527f4753303235000000000000000000000000000000000000000000000000000000604482015260640161076c565b610d8c565b601e8460ff161115610d2c576040517f19457468657265756d205369676e6564204d6573736167653a0a3332000000006020820152603c81018b9052600190605c0160405160208183030381529060405280519060200120600486610ccc91906135ad565b6040805160008152602081018083529390935260ff90911690820152606081018590526080810184905260a0016020604051602081039080840390855afa158015610d1b573d6000803e3d6000fd5b505050602060405103519450610d8c565b6040805160008152602081018083528c905260ff861691810191909152606081018490526080810183905260019060a0016020604051602081039080840390855afa158015610d7f573d6000803e3d6000fd5b5050506020604051035194505b856001600160a01b0316856001600160a01b0316118015610dc657506001600160a01b038581166000908152600260205260409020541615155b8015610ddc57506001600160a01b038516600114155b610e285760405162461bcd60e51b815260206004820152600560248201527f4753303236000000000000000000000000000000000000000000000000000000604482015260640161076c565b9394508493600101610916565b50505050505050505050565b600060016001600160a01b03831614801590610e7657506001600160a01b038281166000908152600160205260409020541615155b92915050565b60006001600160a01b038216600114801590610e765750506001600160a01b0390811660009081526002602052604090205416151590565b600033600114801590610ede5750336000908152600160205260409020546001600160a01b031615155b610f2a5760405162461bcd60e51b815260206004820152600560248201527f4753313034000000000000000000000000000000000000000000000000000000604482015260640161076c565b610f57858585857fffffffffffffffffffffffffffffffffffffffffffffffffffffffffffffffff612598565b90508015610f8f5760405133907f6895c13664aa4f67288b25d7a21d7aaa34916e355fb9b6fae0a139a9085becb890600090a2610fbb565b60405133907facd2c8702804128fdb0db2bb49f6d127dd0181c13fd45dbfe16de0930e2bd37590600090a25b949350505050565b60006060610fd386868686610eb4565b915060405160203d0181016040523d81523d6000602083013e8091505094509492505050565b606060006110088360206135c6565b67ffffffffffffffff81111561102057611020612d50565b6040519080825280601f01601f19166020018201604052801561104a576020820181803683370190505b50905060005b8381101561106d5784810154602080830284010152600101611050565b509392505050565b61107d6124ef565b6001600160a01b0381161580159061109f57506001600160a01b038116600114155b6110eb5760405162461bcd60e51b815260206004820152600560248201527f4753313031000000000000000000000000000000000000000000000000000000604482015260640161076c565b6001600160a01b0381811660009081526001602052604090205416156111535760405162461bcd60e51b815260206004820152600560248201527f4753313032000000000000000000000000000000000000000000000000000000604482015260640161076c565b600160208190527fcc69885fda6bcc1a4ace058b4a62bf5e179ea78fd58a1ccd71c22cc9b688792f80546001600160a01b03848116600081815260408082208054949095167fffffffffffffffffffffffff000000000000000000000000000000000000000094851617909455948552835490911681179092555190917fecdf3a3effea5783a3c4c2140e677577666428d44ed9d474a0b3a4c9943f844091a250565b6111fe6124ef565b6003548111156112505760405162461bcd60e51b815260206004820152600560248201527f4753323031000000000000000000000000000000000000000000000000000000604482015260640161076c565b60018110156112a15760405162461bcd60e51b815260206004820152600560248201527f4753323032000000000000000000000000000000000000000000000000000000604482015260640161076c565b60048190556040518181527f610f7ff2b304ae8903c3de74c60c6ab1f7d6226b3f52c5161905bb5ad4039c939060200160405180910390a150565b60008060006112f68e8e8e8e8e8e8e8e8e8e600554612113565b6005805491925060006113088361350e565b9091555050805160208201209150611321828286611670565b50600061134c7f4a204f620c8c5ccdca3fd54d003badd85ba500436a431f0cbda4f558c93c34c85490565b90506001600160a01b038116156113d257806001600160a01b03166375f0bb528f8f8f8f8f8f8f8f8f8f8f336040518d63ffffffff1660e01b815260040161139f9c9b9a99989796959493929190613647565b600060405180830381600087803b1580156113b957600080fd5b505af11580156113cd573d6000803e3d6000fd5b505050505b6113fe6113e18a6109c4613729565b603f6113ee8c60406135c6565b6113f8919061373c565b906125df565b61140a906101f4613729565b5a10156114595760405162461bcd60e51b815260206004820152600560248201527f4753303130000000000000000000000000000000000000000000000000000000604482015260640161076c565b60005a90506114ca8f8f8f8f8080601f016020809104026020016040519081016040528093929190818152602001838380828437600081840152601f19601f820116905080830192505050505050508e8c6000146114b7578e612598565b6109c45a6114c59190613777565b612598565b93506114d75a82906125f6565b905083806114e457508915155b806114ee57508715155b61153a5760405162461bcd60e51b815260206004820152600560248201527f4753303133000000000000000000000000000000000000000000000000000000604482015260640161076c565b600088156115525761154f828b8b8b8b612611565b90505b841561159757837f442e715f626346e8c54381002da614f62bee8d27386535b2521ec8540898556e8260405161158a91815260200190565b60405180910390a26115d2565b837f23428b18acfb3ea64b08dc0c1d296ea9c09702c09083ca5272e64d115b687d23826040516115c991815260200190565b60405180910390a25b50506001600160a01b0381161561165f576040517f932713680000000000000000000000000000000000000000000000000000000081526004810183905283151560248201526001600160a01b03821690639327136890604401600060405180830381600087803b15801561164657600080fd5b505af115801561165a573d6000803e3d6000fd5b505050505b50509b9a5050505050505050505050565b600454806116c05760405162461bcd60e51b815260206004820152600560248201527f4753303031000000000000000000000000000000000000000000000000000000604482015260640161076c565b6116cc848484846108b1565b50505050565b6060600060035467ffffffffffffffff8111156116f1576116f1612d50565b60405190808252806020026020018201604052801561171a578160200160208202803683370190505b506001600090815260026020527fe90b7bceb6e7df5418fb78d8ee546e97c83a08bbccc01a0644d599ccd2a7c2e054919250906001600160a01b03165b6001600160a01b0381166001146117bb578083838151811061177b5761177b61378a565b6001600160a01b039283166020918202929092018101919091529181166000908152600290925260409091205416816117b38161350e565b925050611757565b509092915050565b600080825160208401855af480600052503d6020523d600060403e60403d016000fd5b6118248a8a808060200260200160405190810160405280939291908181526020018383602002808284376000920191909152508c9250612747915050565b6001600160a01b0384161561183c5761183c84612a13565b61187c8787878080601f016020809104026020016040519081016040528093929190818152602001838380828437600092019190915250612a8f92505050565b81156118935761189182600060018685612611565b505b336001600160a01b03167f141df868a6331af528e38c83b7aa03edc19be66e37ae67f9285bf4f8e3c6a1a88b8b8b8b896040516118d49594939291906137b9565b60405180910390a250505050505050505050565b606060006001600160a01b03841660011480611908575061190884610e41565b6119545760405162461bcd60e51b815260206004820152600560248201527f4753313035000000000000000000000000000000000000000000000000000000604482015260640161076c565b600083116119a45760405162461bcd60e51b815260206004820152600560248201527f4753313036000000000000000000000000000000000000000000000000000000604482015260640161076c565b8267ffffffffffffffff8111156119bd576119bd612d50565b6040519080825280602002602001820160405280156119e6578160200160208202803683370190505b506001600160a01b03808616600090815260016020526040812054929450911691505b6001600160a01b03821615801590611a2b57506001600160a01b038216600114155b8015611a3657508381105b15611a915781838281518110611a4e57611a4e61378a565b6001600160a01b03928316602091820292909201810191909152928116600090815260019093526040909220549091169080611a898161350e565b915050611a09565b6001600160a01b038216600114611ac95782611aae600183613777565b81518110611abe57611abe61378a565b602002602001015191505b808352509250929050565b336000908152600260205260409020546001600160a01b0316611b395760405162461bcd60e51b815260206004820152600560248201527f4753303330000000000000000000000000000000000000000000000000000000604482015260640161076c565b336000818152600860209081526040808320858452909152808220600190555183917ff2a0eb156472d1440255b0d7c1e19cc07115d1051fe605b0dce69acfec884d9c91a350565b6000611b968c8c8c8c8c8c8c8c8c8c8c612113565b8051906020012090509b9a5050505050505050505050565b611bb66124ef565b6001600160a01b03811615801590611bd857506001600160a01b038116600114155b611c245760405162461bcd60e51b815260206004820152600560248201527f4753313031000000000000000000000000000000000000000000000000000000604482015260640161076c565b6001600160a01b03828116600090815260016020526040902054811690821614611c905760405162461bcd60e51b815260206004820152600560248201527f4753313033000000000000000000000000000000000000000000000000000000604482015260640161076c565b6001600160a01b03818116600081815260016020526040808220805487861684528284208054919096167fffffffffffffffffffffffff0000000000000000000000000000000000000000918216179095558383528054909416909355915190917faab4fa2b463f581b2b32cb3b7e3b704b9ce37cc209b5fb4d77e593ace405427691a25050565b611d206124ef565b6001600160a01b03811615611e1c576040517f01ffc9a70000000000000000000000000000000000000000000000000000000081527fe6d7a83a0000000000000000000000000000000000000000000000000000000060048201526001600160a01b038216906301ffc9a790602401602060405180830381865afa158015611dac573d6000803e3d6000fd5b505050506040513d601f19601f82011682018060405250810190611dd09190613825565b611e1c5760405162461bcd60e51b815260206004820152600560248201527f4753333030000000000000000000000000000000000000000000000000000000604482015260640161076c565b7f4a204f620c8c5ccdca3fd54d003badd85ba500436a431f0cbda4f558c93c34c88181556040516001600160a01b038316907f1151116914515bc0891ff9047a6cb32cf902546f83066499bcf8ba33d2353fa290600090a25050565b611e806124ef565b6001600160a01b03811615801590611ea257506001600160a01b038116600114155b8015611eb757506001600160a01b0381163014155b611f035760405162461bcd60e51b815260206004820152600560248201527f4753323033000000000000000000000000000000000000000000000000000000604482015260640161076c565b6001600160a01b038181166000908152600260205260409020541615611f6b5760405162461bcd60e51b815260206004820152600560248201527f4753323034000000000000000000000000000000000000000000000000000000604482015260640161076c565b6001600160a01b03821615801590611f8d57506001600160a01b038216600114155b611fd95760405162461bcd60e51b815260206004820152600560248201527f4753323033000000000000000000000000000000000000000000000000000000604482015260640161076c565b6001600160a01b038381166000908152600260205260409020548116908316146120455760405162461bcd60e51b815260206004820152600560248201527f4753323035000000000000000000000000000000000000000000000000000000604482015260640161076c565b6001600160a01b03828116600081815260026020526040808220805486861680855283852080549288167fffffffffffffffffffffffff00000000000000000000000000000000000000009384161790559589168452828420805482169096179095558383528054909416909355915190917ff8d49fc529812e9a7c5c50e69c20f0dccc0db8fa95c98bc58cc9a4f1c1299eaf91a26040516001600160a01b038216907f9465fa0c962cc76958e6373a993326400c1c94f8be2fe3a952adfa7f60b2ea2690600090a2505050565b606060007fbb8310d486368db6bd6f849402fdd73ad53d316b5a4b2644ad6efe0f941286d860001b8d8d8d8d60405161214d929190613847565b604051908190038120612173949392918e908e908e908e908e908e908e90602001613857565b604080517fffffffffffffffffffffffffffffffffffffffffffffffffffffffffffffffe0818403018152919052805160209091012090507f19000000000000000000000000000000000000000000000000000000000000007f010000000000000000000000000000000000000000000000000000000000000061224760007f47e79534a245952e8b16893a336b85a3d9ea9fa8c573f3d803afb92a794692184660408051602081019390935282015230606082015260800160405160208183030381529060405280519060200120905090565b6040517fff0000000000000000000000000000000000000000000000000000000000000093841660208201529290911660218301526022820152604281018290526062016040516020818303038152906040529150509b9a5050505050505050505050565b6122b46124ef565b6122bd81612a13565b6040516001600160a01b038216907f5ac6c46c93c8d0e53714ba3b53db3e7c046da994313d7ed0d192028bc7c228b090600090a250565b6122fc6124ef565b80600160035461230c9190613777565b101561235a5760405162461bcd60e51b815260206004820152600560248201527f4753323031000000000000000000000000000000000000000000000000000000604482015260640161076c565b6001600160a01b0382161580159061237c57506001600160a01b038216600114155b6123c85760405162461bcd60e51b815260206004820152600560248201527f4753323033000000000000000000000000000000000000000000000000000000604482015260640161076c565b6001600160a01b038381166000908152600260205260409020548116908316146124345760405162461bcd60e51b815260206004820152600560248201527f4753323035000000000000000000000000000000000000000000000000000000604482015260640161076c565b6001600160a01b03828116600081815260026020526040808220805488861684529183208054929095167fffffffffffffffffffffffff0000000000000000000000000000000000000000928316179094559181528254909116909155600380549161249f836138c7565b90915550506040516001600160a01b038316907ff8d49fc529812e9a7c5c50e69c20f0dccc0db8fa95c98bc58cc9a4f1c1299eaf90600090a280600454146124ea576124ea816111f6565b505050565b33301461253e5760405162461bcd60e51b815260206004820152600560248201527f4753303331000000000000000000000000000000000000000000000000000000604482015260640161076c565b565b60008260000361255257506000610e76565b600061255e83856135c6565b90508261256b858361373c565b1461257557600080fd5b9392505050565b6000806125898385613729565b90508381101561257557600080fd5b600060018360018111156125ae576125ae6135dd565b036125c6576000808551602087018986f490506125d6565b600080855160208701888a87f190505b95945050505050565b6000818310156125ef5781612575565b5090919050565b60008282111561260557600080fd5b6000610fbb8385613777565b6000806001600160a01b03831615612629578261262b565b325b90506001600160a01b0384166126d65761265d3a861061264b573a61264d565b855b612657898961257c565b90612540565b6040519092506001600160a01b0382169083156108fc029084906000818181858888f193505050506126d15760405162461bcd60e51b815260206004820152600560248201527f4753303131000000000000000000000000000000000000000000000000000000604482015260640161076c565b61273d565b6126e485612657898961257c565b91506126f1848284612c3f565b61273d5760405162461bcd60e51b815260206004820152600560248201527f4753303132000000000000000000000000000000000000000000000000000000604482015260640161076c565b5095945050505050565b600454156127975760405162461bcd60e51b815260206004820152600560248201527f4753323030000000000000000000000000000000000000000000000000000000604482015260640161076c565b81518111156127e85760405162461bcd60e51b815260206004820152600560248201527f4753323031000000000000000000000000000000000000000000000000000000604482015260640161076c565b60018110156128395760405162461bcd60e51b815260206004820152600560248201527f4753323032000000000000000000000000000000000000000000000000000000604482015260640161076c565b600160005b83518110156129c857600084828151811061285b5761285b61378a565b6020026020010151905060006001600160a01b0316816001600160a01b03161415801561289257506001600160a01b038116600114155b80156128a757506001600160a01b0381163014155b80156128c55750806001600160a01b0316836001600160a01b031614155b6129115760405162461bcd60e51b815260206004820152600560248201527f4753323033000000000000000000000000000000000000000000000000000000604482015260640161076c565b6001600160a01b0381811660009081526002602052604090205416156129795760405162461bcd60e51b815260206004820152600560248201527f4753323034000000000000000000000000000000000000000000000000000000604482015260640161076c565b6001600160a01b03928316600090815260026020526040902080547fffffffffffffffffffffffff0000000000000000000000000000000000000000169382169390931790925560010161283e565b506001600160a01b0316600090815260026020526040902080547fffffffffffffffffffffffff00000000000000000000000000000000000000001660011790559051600355600455565b306001600160a01b03821603612a6b5760405162461bcd60e51b815260206004820152600560248201527f4753343030000000000000000000000000000000000000000000000000000000604482015260640161076c565b7f6c9a6c4a39284e37ed1cf53d337577d14212a4870fb976a4366c693b939918d555565b600160008190526020527fcc69885fda6bcc1a4ace058b4a62bf5e179ea78fd58a1ccd71c22cc9b688792f546001600160a01b031615612b115760405162461bcd60e51b815260206004820152600560248201527f4753313030000000000000000000000000000000000000000000000000000000604482015260640161076c565b6001600081905260208190527fcc69885fda6bcc1a4ace058b4a62bf5e179ea78fd58a1ccd71c22cc9b688792f80547fffffffffffffffffffffffff00000000000000000000000000000000000000001690911790556001600160a01b038216156108ad57813b612bc45760405162461bcd60e51b815260206004820152600560248201527f4753303032000000000000000000000000000000000000000000000000000000604482015260640161076c565b612bf38260008360017fffffffffffffffffffffffffffffffffffffffffffffffffffffffffffffffff612598565b6108ad5760405162461bcd60e51b815260206004820152600560248201527f4753303030000000000000000000000000000000000000000000000000000000604482015260640161076c565b604080516001600160a01b03841660248201526044808201849052825180830390910181526064909101909152602080820180517bffffffffffffffffffffffffffffffffffffffffffffffffffffffff167fa9059cbb000000000000000000000000000000000000000000000000000000001781528251600093929184919082896127105a03f13d8015612cdf5760208114612ce75760009350612cf2565b819350612cf2565b600051158215171593505b5050509392505050565b6001600160a01b0381168114612d1157600080fd5b50565b8035612d1f81612cfc565b919050565b60008060408385031215612d3757600080fd5b8235612d4281612cfc565b946020939093013593505050565b7f4e487b7100000000000000000000000000000000000000000000000000000000600052604160045260246000fd5b600082601f830112612d9057600080fd5b813567ffffffffffffffff80821115612dab57612dab612d50565b604051601f83017fffffffffffffffffffffffffffffffffffffffffffffffffffffffffffffffe0908116603f01168101908282118183101715612df157612df1612d50565b81604052838152866020858801011115612e0a57600080fd5b836020870160208301376000602085830101528094505050505092915050565b60008060008060808587031215612e4057600080fd5b84359350602085013567ffffffffffffffff80821115612e5f57600080fd5b612e6b88838901612d7f565b94506040870135915080821115612e8157600080fd5b50612e8e87828801612d7f565b949793965093946060013593505050565b600060208284031215612eb157600080fd5b813561257581612cfc565b803560028110612d1f57600080fd5b60008060008060808587031215612ee157600080fd5b8435612eec81612cfc565b935060208501359250604085013567ffffffffffffffff811115612f0f57600080fd5b612f1b87828801612d7f565b925050612f2a60608601612ebc565b905092959194509250565b6000815180845260005b81811015612f5b57602081850181015186830182015201612f3f565b5060006020828601015260207fffffffffffffffffffffffffffffffffffffffffffffffffffffffffffffffe0601f83011685010191505092915050565b8215158152604060208201526000610fbb6040830184612f35565b60008060408385031215612fc757600080fd5b50508035926020909101359150565b6020815260006125756020830184612f35565b600060208284031215612ffb57600080fd5b5035919050565b60008083601f84011261301457600080fd5b50813567ffffffffffffffff81111561302c57600080fd5b60208301915083602082850101111561304457600080fd5b9250929050565b60008060008060008060008060008060006101408c8e03121561306d57600080fd5b6130768c612d14565b9a5060208c0135995067ffffffffffffffff8060408e0135111561309957600080fd5b6130a98e60408f01358f01613002565b909a5098506130ba60608e01612ebc565b975060808d0135965060a08d0135955060c08d013594506130dd60e08e01612d14565b93506130ec6101008e01612d14565b9250806101208e0135111561310057600080fd5b506131128d6101208e01358e01612d7f565b90509295989b509295989b9093969950565b60008060006060848603121561313957600080fd5b83359250602084013567ffffffffffffffff8082111561315857600080fd5b61316487838801612d7f565b9350604086013591508082111561317a57600080fd5b5061318786828701612d7f565b9150509250925092565b60008151808452602080850194506020840160005b838110156131cb5781516001600160a01b0316875295820195908201906001016131a6565b509495945050505050565b6020815260006125756020830184613191565b600080604083850312156131fc57600080fd5b823561320781612cfc565b9150602083013567ffffffffffffffff81111561322357600080fd5b61322f85828601612d7f565b9150509250929050565b6000806000806000806000806000806101008b8d03121561325957600080fd5b8a3567ffffffffffffffff8082111561327157600080fd5b818d0191508d601f83011261328557600080fd5b81358181111561329457600080fd5b8e60208260051b85010111156132a957600080fd5b60208381019d50909b508d013599506132c460408e01612d14565b985060608d01359150808211156132da57600080fd5b506132e78d828e01613002565b90975095506132fa905060808c01612d14565b935061330860a08c01612d14565b925060c08b0135915061331d60e08c01612d14565b90509295989b9194979a5092959850565b6040815260006133416040830185613191565b90506001600160a01b03831660208301529392505050565b60008060008060008060008060008060006101408c8e03121561337b57600080fd5b8b3561338681612cfc565b9a5060208c0135995060408c013567ffffffffffffffff8111156133a957600080fd5b6133b58e828f01613002565b909a5098506133c8905060608d01612ebc565b965060808c0135955060a08c0135945060c08c0135935060e08c01356133ed81612cfc565b92506101008c01356133fe81612cfc565b809250506101208c013590509295989b509295989b9093969950565b6000806040838503121561342d57600080fd5b823561343881612cfc565b9150602083013561344881612cfc565b809150509250929050565b60008060006060848603121561346857600080fd5b833561347381612cfc565b9250602084013561348381612cfc565b9150604084013561349381612cfc565b809150509250925092565b6000806000606084860312156134b357600080fd5b83356134be81612cfc565b925060208401356134ce81612cfc565b929592945050506040919091013590565b7f4e487b7100000000000000000000000000000000000000000000000000000000600052601160045260246000fd5b60007fffffffffffffffffffffffffffffffffffffffffffffffffffffffffffffffff820361353f5761353f6134df565b5060010190565b6040815260006135596040830185612f35565b82810360208401526125d68185612f35565b60006020828403121561357d57600080fd5b81517fffffffff000000000000000000000000000000000000000000000000000000008116811461257557600080fd5b60ff8281168282160390811115610e7657610e766134df565b8082028115828204841417610e7657610e766134df565b7f4e487b7100000000000000000000000000000000000000000000000000000000600052602160045260246000fd5b60028110613643577f4e487b7100000000000000000000000000000000000000000000000000000000600052602160045260246000fd5b9052565b60006101606001600160a01b038f1683528d60208401528060408401528b81840152506101808b8d828501376000818d850101527fffffffffffffffffffffffffffffffffffffffffffffffffffffffffffffffe0601f8d011683016136b0606085018d61360c565b8a60808501528960a08501528860c08501526136d760e08501896001600160a01b03169052565b6001600160a01b03871661010085015281848203016101208501526136fe82820187612f35565b925050506137186101408301846001600160a01b03169052565b9d9c50505050505050505050505050565b80820180821115610e7657610e766134df565b600082613772577f4e487b7100000000000000000000000000000000000000000000000000000000600052601260045260246000fd5b500490565b81810381811115610e7657610e766134df565b7f4e487b7100000000000000000000000000000000000000000000000000000000600052603260045260246000fd5b6080808252810185905260008660a08301825b888110156137fc5782356137df81612cfc565b6001600160a01b03168252602092830192909101906001016137cc565b50602084019690965250506001600160a01b039283166040820152911660609091015292915050565b60006020828403121561383757600080fd5b8151801515811461257557600080fd5b8183823760009101908152919050565b6000610160820190508c82526001600160a01b03808d1660208401528b60408401528a606084015261388c608084018b61360c565b60a083019890985260c082019690965260e0810194909452918516610100840152909316610120820152610140019190915295945050505050565b6000816138d6576138d66134df565b507fffffffffffffffffffffffffffffffffffffffffffffffffffffffffffffffff019056fea2646970667358221220372496c3a8acbdb3e98b7710e5245f549a56e4e7903a298b7ec5d066246e623464736f6c63430008190033",
    "linkReferences": {},
    "deployedLinkReferences": {}
}